:1000000002450C02001253EFFE322202404953EF28
:10001000FD323202001A53EFFB323202002253EF5C
:10002000FD3232024A729005BDE0FCA3E0FDED1DF9
:1000300070011C14AA044C70F5EF1F70011E144EC1
:1000400070E42202515FC2A6125294D2A602529BC1
:0A005000C2AF22020006D2AF223236
:03005B0002000E92
:100063000200599001FCEFF0AA03A9051252CD1228
:0F00730050A2AF011250A6AF021250A6020046D3
:0300830002001662
:03008B000251819E
:030093000251A374
:03009B0002001E42
:1000A300024CEA020478E86480F8E933E83360112B
:1000B3000460F0ED33EC337009E8FCE9FDEAFEEB94
:1000C300FF220460DED3EB9FEA9EE99DE8C2E78C42
:1000D300F0C2F795F0400CE8CCF8E9CDF9EACEFA96
:1000E300EBCFFB12044385D0F05804700320D5B343
:1000F300E80470075002B2D502048292D5EC046082
:10010300F7E4CCC0E0C398F8603B94186008400D56
:10011300D0E0FB02045AE4FBFAC9FC8028E830E48F
:1001230006E4C9FBE4CAFCE830E305E4C9CACBFC36
:10013300E854076010F8C3E913F9EA13FAEB13FB69
:10014300EC13FCD8F130F52FC3E49CFCEF9BFFEEDE
:100153009AFEED99FDD0E0FBEF4E4D4C701222DB81
:100163000302047FEC2CFCEF33FFEE33FEED33FD93
:10017300ED30E7EB02045AEF2BFFEE3AFEED39FDCB
:10018300D0E0FB50130BBB0003020482ED13FDEE22
:1001930013FEEF13FFEC13FC02045AEC4D6011E85D
:1001A300497017ED33EC3304600DE4FCFFFEFD22D0
:1001B300E933E8330470F802047812044358046006
:1001C30009E4CC2481500628500902048228400304
:1001D30002047FC0E0EB4A7044B98006D0E0FB0222
:1001E300046EEF4E701CBD8008EBFFEAFEE9FD8054
:1001F300EBE98DF0A4FEE5F0020287E9CDF9EAFE12
:10020300EBFFEF89F0A4FCE5F0CE89F0A42EFFE428
:1002130035F0CD89F0A42DFEE435F08067EF4E7004
:1002230005BD80D780C3EF8BF0A4ACF0EE8BF0A4B8
:100233002CFCE435F0F8EF8AF0A42CE5F038FCE46C
:1002430033CB8DF0A42CFCE5F03BF8EE8AF0A42C24
:10025300FCE5F038F8E433CF89F0A42CFCE5F03862
:10026300CF3400CE89F0A42FFFE5F03EFEE433C97E
:100273008DF0A42EFEE5F039CD8AF0A42FFFE5F032
:100283003EFEE43DFD33D0E0FB50070BBB000F0205
:100293000482EC2CFCEF33FFEE33FEED33FD02045E
:1002A3005A020482EC5D046005E8590470030204F9
:1002B30078120443580460F6EC4860F2EC7004FDD5
:1002C300FEFF22C860DB2481C85009C39860025036
:1002D3000602047F9850CAF582E9294B4A7005ABA0
:1002E3008202046E75F0007C1A7880C3EF9BEE9A4D
:1002F300ED99400DC3EF9BFFEE9AFEED99FDE842A9
:10030300F0DC23ACF0D0E0FFD0E0FED0E0FDAB8228
:1003130020E7101BEB60BAEC2CFCEF33FFEE33FE4F
:10032300ED33FD02045AE803F830E705C0F075F039
:1003330000EF2FFFEE33FEED33FD40B830E7C28010
:10034300AA74F8CC6480CCC86480C8F58204604F7A
:10035300C3EB9FF5F0EA9E42F0E99D42F0E89C452D
:10036300F0603C501DE5825FFFE582D313CB5BCB8E
:10037300F42B5582FB50280ABA002409B90020083F
:10038300801DE5825BFBE582D313CF5FCFF4C313FC
:100393002F5582FF50090EBE00050DBD00010CC391
:1003A300EB9FF5F0EA9E42F0E99D42F0E89C45F0B0
:1003B3006007CC4820E701B3EC22ED33EC33600A4D
:1003C300047003BD8004ECB2E7FC2275F020800EBC
:1003D30075F010800575F0087D007E007F00339274
:1003E300D530D50312083DEC334010EF33FFEE3325
:1003F300FEED33FDEC33FCD5F0ED22E5F0247EA2D7
:10040300D513CC92E7CDCEFF22EDD2E7CD33EC333B
:1004130092D524814006E4FFFEFDFC22FCE4CFCE0E
:10042300CDCC24E0501174FF80EDC3CC13CCCD139D
:10043300CDCE13CECF13CF0470F030D5DE02083DFE
:10044300E9D2E7C933E833F892D5EDD2E7CD33ECFF
:1004530033FC5002B2D522EC30E7100FBF000C0E74
:10046300BE00080DBD00040BEB6014A2D5EB13FC1A
:10047300ED92E7FD2274FFFCFDFEFF22E480F8A26B
:10048300D574FF13FC7D80E480EFE709F608DFFAFB
:100493008046E709F208DFFA803E88828C83E70909
:1004A300F0A3DFFA8032E309F608DFFA8078E30984
:1004B300F208DFFA807088828C83E309F0A3DFFA05
:1004C300806489828A83E0A3F608DFFA80588982F0
:1004D3008A83E0A3F208DFFA804C80D280FA80C6D8
:1004E30080D4806980F28033801080A680EA809A6D
:1004F30080A880DA80E280CA803389828A83ECFA1A
:10050300E493A3C8C582C8CCC583CCF0A3C8C58275
:10051300C8CCC583CCDFE9DEE7800D89828A83E41A
:1005230093A3F608DFF9ECFAA9F0EDFB2289828A9E
:1005330083ECFAE0A3C8C582C8CCC583CCF0A3C8BA
:10054300C582C8CCC583CCDFEADEE880DB89828A3A
:1005530083E493A3F208DFF980CC88F0EF60010E07
:100563004E60C388F0ED2402B4040050B9F582EB69
:100573002402B4040050AF23234582239004DD7387
:10058300C2D530F707B2D563F0FF05F030E70CB200
:10059300D5F4048463F0FF05F080018430D502F4C0
:1005A3000422BB010689828A83E0225002E722BB30
:1005B300FE02E32289828A83E49322BB010CE58253
:1005C30029F582E5833AF583E0225006E92582F88E
:1005D300E622BBFE06E92582F8E222E58229F582BE
:1005E300E5833AF583E49322BB010689828A83F08B
:1005F300225002F722BBFE01F322F8BB010DE58274
:1006030029F582E5833AF583E8F0225006E925824D
:10061300C8F622BBFE05E92582C8F222EF8DF0A4BD
:10062300A8F0CF8CF0A428CE8DF0A42EFE22BC001F
:100633000BBE0029EF8DF084FFADF022E4CCF875FA
:10064300F008EF2FFFEE33FEEC33FCEE9DEC984009
:1006530005FCEE9DFE0FD5F0E9E4CEFD22EDF8F5A5
:10066300F0EE8420D21CFEADF075F008EF2FFFED05
:1006730033FD4007985006D5F0F222C398FD0FD5FD
:10068300F0EA22C2D5EC30E709B2D5E4C39DFDE41C
:100693009CFCEE30E715B2D5E4C39FFFE49EFE1247
:1006A3000631C3E49DFDE49CFC800312063130D582
:1006B30007C3E49FFFE49EFE22C5F0F8A3E028F001
:1006C300C5F0F8E582158270021583E038F022A3A5
:1006D300F8E0C5F025F0F0E582158270021583E09D
:1006E300C838F0E822BB0110E58229F582E5833A98
:1006F300F583E0F5F0A3E0225009E92582F886F0BE
:1007030008E622BBFE0AE92582F8E2F5F008E222B8
:10071300E5832AF583E993F5F0A3E99322E88FF0C3
:10072300A4CC8BF0A42CFCE98EF0A42CFC8AF0ED75
:10073300A42CFCEA8EF0A4CDA8F08BF0A42DCC3829
:1007430025F0FDE98FF0A42CCD35F0FCEB8EF0A461
:10075300FEA9F0EB8FF0A4CFC5F02ECD39FEE43C1B
:10076300FCEAA42DCE35F0FDE43CFC2275F00875BF
:100773008200EF2FFFEE33FECD33CDCC33CCC582D9
:1007830033C5829BED9AEC99E58298400CF582EE95
:100793009BFEED9AFDEC99FC0FD5F0D6E4CEFBE47D
:1007A300CDFAE4CCF9A88222B800C1B90059BA0045
:1007B3002DEC8BF084CFCECDFCE5F0CBF97818EFA0
:1007C3002FFFEE33FEED33FDEC33FCEB33FB10D7A1
:1007D30003994004EB99FB0FD8E5E4F9FA22781862
:1007E300EF2FFFEE33FEED33FDEC33FCC933C910BD
:1007F300D7059BE99A4007EC9BFCE99AF90FD8E0EF
:10080300E4C9FAE4CCFB2275F010EF2FFFEE33FEC0
:10081300ED33FDCC33CCC833C810D7079BEC9AE833
:1008230099400AED9BFDEC9AFCE899F80FD5F0DAB4
:10083300E4CDFBE4CCFAE4C8F922C3E49FFFE49ED1
:10084300FEE49DFDE49CFC22EB9FF5F0EA9E42F062
:10085300E99D42F0EC6480C864809845F022EB9FE8
:10086300F5F0EA9E42F0E99D42F0E89C45F022E86B
:10087300600FECC313FCED13FDEE13FEEF13FFD873
:10088300F122BB010789828A8302098C5005E9F8AA
:10089300020980BBFE05E9F802099889828A83026E
:1008A30009A47401FF3395E0FEFDFCA3A3A3E0CFED
:1008B3002FF0E582158270021583E0CE3EF0E582CB
:1008C300158270021583E0CD3DF0E582158270023A
:1008D3001583E0CC3CF022ECF0A3EDF0A3EEF0A303
:1008E300EFF022A8828583F0D083D0821208FD1214
:1008F30008FD1208FD1208FDE473E493A3C583C544
:10090300F0C583C8C582C8F0A3C583C5F0C583C835
:10091300C582C822F5F0C582A4C582C5F0C583A4EB
:100923002583F58322A42582F582E5F03583F583BB
:1009330022BB010789828A830209BD5005E9F802B7
:1009430009B4BBFE05E9F80209C689828A83020954
:10095300CFD083D082F8E4937012740193700DA307
:10096300A393F8740193F5828883E4737402936804
:1009730060EFA3A3A380DF8A838982E473E6FC0884
:10098300E6FD08E6FE08E6FF22E0FCA3E0FDA3E0A7
:10099300FEA3E0FF22E2FC08E2FD08E2FE08E2FF1C
:1009A30022E493FC740193FD740293FE740393FF9A
:1009B30022E6FB08E6FA08E6F922E0FBA3E0FAA345
:1009C300E0F922E2FB08E2FA08E2F922E493FB747D
:1009D3000193FA740293F92278997C027D017BFFDB
:1009E3007A6279657E007F0812055D78A17C027DBD
:1009F300017BFF7A62796D7E007F0812055D78A91D
:100A03007C027D017BFF7A6279757E007F1012057F
:100A13005D78B97C027D017BFF7A6279857E007FF8
:100A23001012055DE49002C9F0A3F0A3F0A3F090C7
:100A330002CBF0A3F09002CBE0FEA3E0FFC394034C
:100A4300EE64809480400302115BEF7802C333CEDF
:100A530033CED8F924B9F58274023EF583E0FCA3C2
:100A6300E0FDA3E0FEA3E0FFC004C005C006C0078D
:100A73009002CBE0FEA3E07802C333CE33CED8F9A5
:100A830024ABF58274033EF583D007D006D005D09E
:100A9300041208DAE49002CBF0A3F07D027F051282
:100AA3004FC6AC06AD079002CCE025E0FF9002CB29
:100AB300E033FE74DB2FF58274033EF583ECF0A381
:100AC300EDF07D02E4FF124FC6AC06AD079002CCF9
:100AD300E025E0FF9002CBE033FE74E52FF582744E
:100AE300033EF583ECF0A3EDF07D027F04124FC6C5
:100AF300AC06AD079002CCE025E0FF9002CBE033DB
:100B0300FE74EF2FF58274033EF583ECF0A3EDF052
:100B13007D027F01124FC6AC06AD079002CCE025E3
:100B2300E0FF9002CBE033FE74F92FF58274033EAD
:100B3300F583ECF0A3EDF09002CCE004F0700690A6
:100B430002CBE004F0C39002CCE094059002CBE02A
:100B5300648094805003020A9EE49002CBF0A3F0D9
:100B63009002CBE0FCA3E0FDC39405EC6480948089
:100B73004003020C9A90029AE025E0FF900299E06C
:100B830033FE74DB2FF58274033EF583E0FAA3E0B2
:100B9300FBED25E0FDEC33FC74DB2DF58274033CA7
:100BA300F583E0FEA3E0C39BEE9A500F9002CBE0E7
:100BB300FFA3E0900299CFF0A3EFF090029CE02511
:100BC300E0FF90029BE033FE74E52FF58274033E51
:100BD300F583E0FEA3E0FF74E52DF58274033CF595
:100BE30083E0FCA3E0C39FEC9E500F9002CBE0FF99
:100BF300A3E090029BCFF0A3EFF090029EE025E0EC
:100C0300FF90029DE033FE74EF2FF58274033EF5EF
:100C130083E0FCA3E0FD9002CBE0FAA3E0FB25E038
:100C2300FFEA33FE74EF2FF58274033EF583E0FE93
:100C3300A3E0C39DEE9C500890029DEAF0A3EBF065
:100C43009002A0E025E0FF90029FE033FE74F92FAD
:100C5300F58274033EF583E0FCA3E0FD9002CBE054
:100C6300FAA3E0FB25E0FFEA33FE74F92FF5827463
:100C7300033EF583E0FEA3E0C39DEE9C5008900283
:100C83009FEAF0A3EBF09002CCE004F07006900230
:100C9300CBE004F0020B63E49002CBF0A3F09002EC
:100CA300CBE0FCA3E0FDC39405EC64809480400397
:100CB300020DD89002A2E025E0FF9002A1E033FEEE
:100CC30074DB2FF58274033EF583E0FAA3E0FBEDBA
:100CD30025E0FDEC33FC74DB2DF58274033CF583D6
:100CE300E0FEA3E0D39BEE9A400F9002CBE0FFA37C
:100CF300E09002A1CFF0A3EFF09002A4E025E0FF83
:100D03009002A3E033FE74E52FF58274033EF5836E
:100D1300E0FEA3E0FF74E52DF58274033CF583E068
:100D2300FCA3E0D39FEC9E400F9002CBE0FFA3E037
:100D33009002A3CFF0A3EFF09002A6E025E0FF908E
:100D430002A5E033FE74EF2FF58274033EF583E0D2
:100D5300FCA3E0FD9002CBE0FAA3E0FB25E0FFEA71
:100D630033FE74EF2FF58274033EF583E0FEA3E0B8
:100D7300D39DEE9C40089002A5EAF0A3EBF090020D
:100D8300A8E025E0FF9002A7E033FE74F92FF58277
:100D930074033EF583E0FCA3E0FD9002CBE0FAA3ED
:100DA300E0FB25E0FFEA33FE74F92FF58274033E7E
:100DB300F583E0FEA3E0D39DEE9C40089002A7EAF2
:100DC300F0A3EBF09002CCE004F070069002CBE0CD
:100DD30004F0020CA1E49002C9F0A3F09002C9E070
:100DE300FCA3E0FD25E0FBEC33FA74A12BF5827440
:100DF300023AF583A3E025E0FF0582D5820215833D
:100E03001582E033FE9003DB75F00AED120928EC3E
:100E130075F00AA42583F583E5822FF582E5833EE9
:100E2300F583E0FEA3E0FF74072BF58274043AF523
:100E330083EEF0A3EFF09002CAE004F07006900294
:100E4300C9E004F09002C9E07004A3E06404708C6C
:100E5300E49002C9F0A3F09002C9E0FCA3E0FD25F1
:100E6300E0FBEC33FA74992BF58274023AF583A311
:100E7300E025E0FF0582D5820215831582E033FE6B
:100E83009003DB75F00AED120928EC75F00AA4252E
:100E930083F583E5822FF582E5833EF583E4F0A3B2
:100EA300F074A12BF58274023AF583A3E025E0FFE9
:100EB3000582D5820215831582E033FE9002C9E0D4
:100EC300FCA3E09003DB75F00A120928EC75F00A25
:100ED300A42583F583E5822FF582E5833EF583E43C
:100EE300F0A3F09002CAE004F070069002C9E00497
:100EF300F09002C9E07004A3E064046003020E5A98
:100F0300E49002CBF0A3F09002A9E0F8A3E0F9A3E8
:100F1300E0FAA3E0FB9002CCE025E0FF9002CBE0F7
:100F230033FE74DB2FF58274033EF583E0FEA3E00A
:100F3300FFE4FCFDEB2FFFEA3EFEED39FDEC38FC50
:100F43009002A91208DA9002ADE0F8A3E0F9A3E059
:100F5300FAA3E0FB9002CCE025E0FF9002CBE03364
:100F6300FE74E52FF58274033EF583E0FEA3E0FFF4
:100F7300E4FCFDEB2FFFEA3EFEED39FDEC38FC907F
:100F830002AD1208DA9002B1E0F8A3E0F9A3E0FAA7
:100F9300A3E0FB9002CCE025E0FF9002CBE033FE20
:100FA30074EF2FF58274033EF583E0FEA3E0FFE4C4
:100FB300FCFDEB2FFFEA3EFEED39FDEC38FC900221
:100FC300B11208DA9002B5E0F8A3E0F9A3E0FAA3BE
:100FD300E0FB9002CCE025E0FF9002CBE033FE740F
:100FE300F92FF58274033EF583E0FEA3E0FFE4FCF2
:100FF300FDEB2FFFEA3EFEED39FDEC38FC9002B528
:101003001208DA9002CCE004F070069002CBE00400
:10101300F09002CBE07004A3E064056003020F0AC2
:101023009002A9E0FCA3E0FDA3E0FEA3E0FFE4122D
:1010330003CEE4FBFA794078401202A712040C9025
:1010430002B91208DA9002ADE0FCA3E0FDA3E0FED2
:10105300A3E0FFE41203CEE4FBFA794078401202E6
:10106300A712040C9002BD1208DA9002B1E0FCA3AF
:10107300E0FDA3E0FEA3E0FFE41203CEE4FBFA7974
:101083004078401202A712040C9002C11208DA90B1
:1010930002B5E0FCA3E0FDA3E0FEA3E0FFE412033E
:1010A300CEE4FBFA794078401202A712040C9002B6
:1010B300C51208DAE4FF7E04FDFC9002B9E0F8A350
:1010C300E0F9A3E0FAA3E0FBC3120861400A90022F
:1010D300B91208E600000400E4FF7E04FDFC900260
:1010E300BDE0F8A3E0F9A3E0FAA3E0FBC3120861B3
:1010F300400A9002BD1208E600000400E4FF7E04EB
:10110300FDFC9002C1E0F8A3E0F9A3E0FAA3E0FB41
:10111300C3120861400A9002C11208E600000400ED
:10112300E4FF7E04FDFC9002C5E0F8A3E0F9A3E030
:10113300FAA3E0FBC3120861400A9002C51208E655
:10114300000004009002CCE004F06003020A38902F
:1011530002CBE004F0020A389002B9E0FCA3E0FD00
:10116300A3E0FEA3E0FF9004831208DA9002BDE03F
:10117300FCA3E0FDA3E0FEA3E0FF9004871208DADE
:101183009002C1E0FCA3E0FDA3E0FEA3E0FF900416
:101193006B1208DA9002C5E0FCA3E0FDA3E0FEA316
:1011A300E0FF9004670208DA90022AEBF0A3EAF06A
:1011B300A3E9F09002581208E60000000090025CD8
:1011C3007401F0A37402F0A37430F090022DE0FBDD
:1011D300A3E0FAA3E0F91205A5FF7003021730900C
:1011E300025FF0642560030216DC90022DA3E47510
:1011F300F0011206BCA9F0FA1205A512095416A8AB
:101203002512B04615825812296312456412B0663E
:1012130012456915086F164F7015D673148275152C
:1012230082780000172390025CE0FBA3E475F004CE
:101233001206D2A9F0FA120885900260EFF0E002DC
:1012430016EA90025CE0FBA3E475F0041206D2A94F
:10125300F0FA1208859002811208DA900281E0FC0C
:10126300A3E0FDA3E0FEA3E0FF7B017A0279609097
:10127300028D7401F0A3740AF01227AB900285EF7C
:10128300F0900281E0FCA3A3A3EC335014A3E02469
:1012930060F582E43402F583742DF0900285E00456
:1012A300F07B017A0279609002850214C690025C99
:1012B300E0FBA3E475F0041206D2A9F0FA12088544
:1012C3009002811208DA900281E0FCA3E0FDA3E022
:1012D300FEA3E0FF12040C7B017A02796090028D79
:1012E3007401F0A3740AF01227AB900285EFF0E4C7
:1012F300FFFEFDFC900281E0F8A3E0F9A3E0FAA36E
:10130300E0FB1203445016900285E02460F582E46A
:101313003402F583742DF0900285E004F07B017AAA
:1013230002796090028512349A900285E0FF7E0074
:1013330090022AE0FBA3E0FAA3E0F8AC02AD037B42
:10134300017A02796012055D900285E0FFFD90024B
:101353002BE48DF01206BC900258E0F8A3E0F9A349
:10136300E0FAA3E0FBE4FCFDFEEB2FFFEE3AFEED1B
:1013730039FDEC38FC9002581208DA900281E0FC47
:10138300A3E0FDA3E0FEA3E0FF12040CEC1203CEE6
:10139300A804A905AA06AB07900281E0FCA3E0FD1F
:1013A300A3E0FEA3E0FF1200A97B007A24797478FE
:1013B3004912019E9002811208DA900281E0FCA397
:1013C300E0FDA3E0FEA3E0FFEC4D4E4F602490024E
:1013D30081A3A3A3E012040C7B017A02796090023B
:1013E3008D7401F0A3740AF01227AB900285EFF01D
:1013F30080209002657430F0900264F0900263F0F4
:10140300900262F0900261F0900260F090028574A5
:1014130006F0900285E0FF7406D39F401574602F99
:10142300F582E43402F5837430F0900285E004F031
:1014330080E0900285E02460F582E43402F5837451
:101443002EF0900285E004123493900285E0FF7E33
:101453000090022AE0FBA3E0FAA3E0F8AC02AD039C
:101463007B017A02796012055D900258E0F8A3E0EF
:10147300F9A3E0FAA3E0FB900285E0FF0215C49014
:10148300025CE0FBA3E475F0041206D2A9F0FA12A1
:1014930008859002811208DA900281E0FCA3E0FD46
:1014A300A3E0FEA3E0FF7B017A027960E490028D62
:1014B300F0A3740AF01227AB900285EFF07B017A58
:1014C30002796012349A900285E0FF7E0090022A2E
:1014D300E0FBA3E0FAA3E0F8AC02AD037B017A02E0
:1014E300796012055D900285E0FFFD90022BE48D8B
:1014F300F01206BC900258E0F8A3E0F9A3E0FAA3C7
:10150300E0FB0215C490025CE0FBA3E475F0041257
:1015130006D2A9F0FA1208859002811208DA900225
:1015230081E0FCA3E0FDA3E0FEA3E0FF7B017A02E0
:101533007960E490028DF0A37408F01227AB1234A3
:101543008F900285E0FF7E0090022AE0FBA3E0FA81
:10155300A3E0F8AC02AD037B017A02796012055D6A
:10156300900285E0FFFD90022BE48DF01206BC9003
:101573000258E0F8A3E0F9A3E0FAA3E0FB804212EB
:10158300277512348F900285E0FF7E0090022AE0D7
:10159300FBA3E0FAA3E0F8AC02AD037B017A027986
:1015A3006012055D900285E0FFFD90022BE48DF053
:1015B3001206BC900258E0F8A3E0F9A3E0FAA3E016
:1015C300FBE4FCFDFEEB2FFFEE3AFEED39FDEC38BC
:1015D30002171C90025CE0FBA3E475F0031206D231
:1015E300A9F0FA120934900260EBF0A3EAF0A3E940
:1015F300F0900260E0FBA3E0FAA3E0F91205A57006
:10160300030217231205A5FF90022AE0FBA3E0FAC9
:10161300A3E0F9EF1205EB90022BE475F00112063B
:10162300BC900258E0FCA3E0FDA3E0FEA3E024018C
:10163300FFE43EFEE43DFDE43CFC9002581208DA70
:10164300900261E475F0011206BC80A51227759023
:101653000285EFF07B017A0279607F087E007D00CE
:101663007C001234A090022AE0FBA3E0FAA3E0F886
:10167300AC02AD037B017A0279607E007F0812051C
:101683005D90022BE475F0081206BC900258E0FC52
:10169300A3E0FDA3E0FEA3E02408FFE43EFEE43D57
:1016A300FDE43C807490022AE0FBA3E0FAA3E0F996
:1016B30074251205EB90022BE475F0011206BC9021
:1016C3000258E0FCA3E0FDA3E0FEA3E02401FFE455
:1016D3003EFEE43DFDE43C804090022DE0FBA3E0B0
:1016E300FAA3E0F91205A5FF90022AE0FBA3E0FAB2
:1016F300A3E0F9EF1205EB90022BE475F00112065B
:10170300BC900258E0FCA3E0FDA3E0FEA3E02401AB
:10171300FFE43EFEE43DFDE43CFC9002581208DA8F
:1017230090022EE475F0011206BC0211CE90025C09
:10173300E4F0A3F0A3F0900258E0FCA3E0FDA3E0E3
:10174300FEA3E0FF224405B9000000004205BD00EE
:10175300004205BF00004205B500004205B7000086
:101763004405233F80000044052740000000440552
:101773002B4040000044052F4080000044053340C7
:10178300A0000044053740C0000044053B40E00092
:101793000044053F4100000044054341100000445C
:1017A30005474120000044048B459C40004404B39A
:1017B300000000004404A30000000044046F000084
:1017C30000004404930000000044048F0000000064
:1017D3004404B70000000044045B0000000044041C
:1017E30053000000004404AB000000004404BB00AD
:1017F300000000440483000000004404870000004C
:10180300004404670000000044046B00000000442F
:101813000473000000004404A70000000044049B7C
:101823000000000044045F0000000044047700004F
:10183300000044044B000000004404570000000073
:101843004404470000000044046300000000440413
:101853004F00000000440497000000004404AF0060
:101863000000004404BF0000000044047B419800D2
:101873000044047F0000000044049F000000004473
:1018830005640000000041055B0144054B000000B6
:101893000044056C0000000044058442B00000448D
:1018A300057041F000004405800000000044057C01
:1018B3000000000044058800000000440574000097
:1018C300000044057800000000602803DB000000EE
:1018D3000000000000000000000000000000000005
:1018E30000000000000000000000000000000000F5
:1018F3000000000000480407000000000000000092
:101903005004370000000000000000000000000049
:101913000000004803CB0000000000000000440466
:1019230017C1C68F5C4403D30000000044041F00AA
:1019330000000044042F0000000044039B0000004B
:1019430000440423437A00004404033F4CCCCD44B9
:1019530003D740E000004403C70000000044041B19
:10196300000000004404130000000044040F0000C2
:10197300000044039F000000004403A30000000094
:101983004403A700000000440433000000004404A3
:101993002B00000000440427000000004403BB00A8
:1019A3000000004403BF000000004403C300000024
:1019B30000420101000160F8010300000000000083
:1019C3000000011A020104FF4D620201030208FF35
:1019D3004D9503021A030BFF4DC8040705010EFFC3
:1019E3004E2E050406010FFF4E610605070110FF89
:1019F3004E940706040111FF4EC70819090212FF8E
:101A03004EFA09080A0213FF4F2D0A09190214FF9F
:101A13004F600B0D0C0315FF50C80C0B0D0316FF85
:101A230050EE0D0C0B0317FF51140E00000000FFC6
:101A330036720F00000000FF37571000000000FF50
:101A4300383C1100000000FF39211200000000FFA4
:101A5300412C1300000000FF3A061400000000FFB1
:101A63003AEB1500000000FF420E1600000000FFD5
:101A73003BD01700000000FF3CB51800000000FF3A
:101A83003D9A190A080318FF4F931A03011A1BFF03
:101A93004DFB1B1C1C1A1DFF521E1C1B1B1A1EFF79
:101AA30052371D00000000FF3E7F1E00000000FFB4
:101AB3003F6444050F3C23D70A5004E73F800000EE
:101AC30000000000000000003F8000005004D70029
:101AD30000000000000000000000000000000044BF
:101AE30004FF3A83126F44051F3BA3D70A4405033F
:101AF3003F00000044050B3F8000000043BA80E52F
:101B03009D603178FAE6FBAF9FC3EF9BFFE494003F
:101B1300FEE49400FDE49400FC7BE07A28790178EC
:101B230000120720E42FFFEE3451FEED3425FDECC7
:101B33003402802E78FBE6FBAF9FC3EF9BFFE49458
:101B430000FEE49400FDE49400FCE47B807ABBF99E
:101B5300F8120720E42FFFEE3436FEED346EFDEC71
:101B63003401FC9001FC1208DA9001FCE0FCA3E0D4
:101B7300FDA3E0FEA3E0FFC00790FE01E0FBE4FA53
:101B8300F9F8D0071207AB9001FC1208DA7FC07E88
:101B9300F67D577C009001FCE0F8A3E0F9A3E0FA9E
:101BA300A3E0FBC312086150097F007E607D547C73
:101BB30000227FC07E267D827C009001FCE0F8A39A
:101BC300E0F9A3E0FAA3E0FBC312086150097F80A8
:101BD3007E8D7D5B7C00227F807EED7DAF7C0090DF
:101BE30001FCE0F8A3E0F9A3E0FAA3E0FBC31208C9
:101BF3006150097F007EC07DA87C00227F807E2DFE
:101C03007DE87C009001FCE0F8A3E0F9A3E0FAA3EF
:101C1300E0FBC312086150097F007E1B7DB77C0087
:101C2300227F807E367D257C019001FCE0F8A3E0D5
:101C3300F9A3E0FAA3E0FBC312086150097F007E19
:101C4300407D197C01227F807E567D417C0190017D
:101C5300FCE0F8A3E0F9A3E0FAA3E0FBC3120861F8
:101C630050097F007E2D7D317C01227F007EDB7D4C
:101C73005F7C019001FCE0F8A3E0F9A3E0FAA3E0A4
:101C8300FBC312086150097F007E807D517C0122D5
:101C93007F607E197D857C019001FCE0F8A3E0F96B
:101CA300A3E0FAA3E0FBC312086150097F007E366C
:101CB3007D6E7C01227F207EE07DB27C019001FC61
:101CC300E0F8A3E0F9A3E0FAA3E0FBC31208615034
:101CD300097FC07EFC7D9B7C01227FE07EA67DE0A8
:101CE3007C019001FCE0F8A3E0F9A3E0FAA3E0FB98
:101CF300C312086150097F807EC37DC97C01227FA6
:101D0300607E2B7DFF7C019001FCE0F8A3E0F9A34A
:101D1300E0FAA3E0FBC312086150097F007E407D17
:101D2300FA7C01227F607E477D247C029001FCE0E7
:101D3300F8A3E0F9A3E0FAA3E0FBC312086150099A
:101D43007FC07E0E7D167C02227F007E6D7D4A7CE5
:101D5300029001FCE0F8A3E0F9A3E0FAA3E0FBC3DF
:101D630012086150097F007E807D327C02227F80D1
:101D73007EDE7D807C029001FCE0F8A3E0F9A3E025
:101D8300FAA3E0FBC312086150097F007E5A7D620B
:101D93007C02227F807EE77DBD7C029001FCE0F81F
:101DA300A3E0F9A3E0FAA3E0FBC31208615008E43F
:101DB300FFFE7DA37C02227F007E6C7DDC7C022201
:101DC300ED6003021E66EF54F0FE7014EF540FFC37
:101DD3007401A804088002C333D8FCF452935294CC
:101DE300BE1014EF540FFE7401A806088002C3331B
:101DF300D8FCF452915292EF54F0FEBE2014EF54EB
:101E03000FFE7401A806088002C333D8FCF4529570
:101E13005296EF54F0FEBE3014EF540FFC7401A839
:101E230004088002C333D8FCF452B152B2BE40144A
:101E3300EF540FFE7401A806088002C333D8FCF4E4
:101E430052B352B4EF54F06450600302206EEF5467
:101E53000FFE7401A806088002C333D8FCF452C9EC
:101E630052CA22ED64016003021F16EF54F0FE70A4
:101E730016EF540FFC7401A804088002C333D8FC86
:101E8300FCF45293EC4294BE1016EF540FFE74010F
:101E9300A806088002C333D8FCFEF45291EE4292A6
:101EA300EF54F0FEBE2016EF540FFE7401A806088F
:101EB3008002C333D8FCFEF45295EE4296EF54F001
:101EC300FEBE3016EF540FFC7401A804088002C351
:101ED30033D8FCFCF452B1EC42B2BE4016EF540FBF
:101EE300FE7401A806088002C333D8FCFEF452B383
:101EF300EE42B4EF54F06450600302206EEF540FCF
:101F0300FE7401A806088002C333D8FCFEF452C94C
:101F130002206BED64026003021FC7EF54F0FE70F2
:101F230016EF540FFC7401A804088002C333D8FCD5
:101F3300FC4293ECF45294BE1016EF540FFE74015E
:101F4300A806088002C333D8FCFE4291EEF45292F5
:101F5300EF54F0FEBE2016EF540FFE7401A80608DE
:101F63008002C333D8FCFE4295EEF45296EF54F050
:101F7300FEBE3016EF540FFC7401A804088002C3A0
:101F830033D8FCFC42B1ECF452B2BE4016EF540F0E
:101F9300FE7401A806088002C333D8FCFE42B3EEE8
:101FA300F452B4EF54F06450600302206EEF540F08
:101FB300FE7401A806088002C333D8FCFE42C9EEB2
:101FC300F452CA22ED6403600302206EEF54F0FE64
:101FD3007015EF540FFD7401A805088002C333D8B0
:101FE300FCFD4293ED4294BE1015EF540FFE7401B5
:101FF300A806088002C333D8FCFE4291EE4292EF5A
:1020030054F0FEBE2015EF540FFE7401A80608809D
:1020130002C333D8FCFE4295EE4296EF54F0FEBE67
:102023003015EF540FFD7401A805088002C333D89F
:10203300FCFD42B1ED42B2BE4015EF540FFE7401F8
:10204300A806088002C333D8FCFE42B3EE42B4EFC5
:1020530054F0FEBE5015EF540FFE7401A80608801D
:1020630002C333D8FCFE42C9EE42CA229001FCEF00
:10207300F0E4900205F0A3F043BA809001FCE0FF86
:10208300122ACE9001FDE0F8A3E0F9A3E0FAA3E061
:10209300FB9005B9E0FCA3E0FDA3E0FEA3E0FF1283
:1020A30007AB7810120872900205EEF0A3EFF090E0
:1020B30001FDE0F8A3E0F9A3E0FAA3E0FB9005B982
:1020C300E0FCA3E0FDA3E0FEA3E0FF1207ABC00624
:1020D300C007900206E02401FF900205E03400AB44
:1020E30007FAE4F9F8D007D0061207ABEF24FFFF95
:1020F300EE34FF900203F0A3EFF0900201E0FCA3A3
:10210300E0FDE41203D37B007A40791C7846120287
:10211300A7C004C005C006C007900203E0FCA3E00B
:10212300FDE41203D3D003D002D001D00012019EEC
:1021330012040CAD07AC069001FCE0FF7440D39F82
:10214300400302221790FEB5C083C082E0FF9001D6
:10215300FCE0FEC4540F24FCF925E0FB7401A80342
:10216300088002C333D8FC4FD082D083F090FEB6F0
:10217300C083C082E0FFEE5403FEA803088002C3BD
:1021830033D8FC4FD082D083F0E9C31324ECFFE4AF
:1021930034FE8F82F583C083C082E0FF9001FCE0B0
:1021A300F9C4540FFE540125E025E0FB7401A80394
:1021B300088002C333D8FC4FD082D083F0EE24E4EE
:1021C300FFE434FE8F82F583E04460F0E04408F0DE
:1021D300900203E0FFA3E090FEF2CFF0A3EFF090B4
:1021E3000205E0FFA3E090FEF0CFF0A3EFF0E9C417
:1021F300540F25E0FFE433FEEF24EDFFEE34FE8FB2
:1022030082F583ECF0A3EDF090FEFD7480F090FE78
:10221300E002230490FEB1C083C082E0FB9001FC86
:10222300E0FA5401F974017E00A801088005C33364
:10223300CE33CED8F9FFEAC4540F25E0FAEFA80253
:10224300088005C333CE33CED8F94BD082D083F088
:1022530090FEB2C083C082E0FF9001FCE05407C34C
:1022630013FEA802088002C333D8FC4FD082D08368
:10227300F09001FCE0FFC413540724CCFBE434FECC
:102283008B82F583C083C082E0FEEFC4540FFF54FA
:102293000125E025E0FBE925E02BFB7401A80308F9
:1022A3008002C333D8FC4ED082D083F0EF24C8FF22
:1022B300E434FE8F82F583E04460F0E04408F0905C
:1022C3000203E0FFA3E090FED2CFF0A3EFF0900271
:1022D30005E0FFA3E090FED0CFF0A3EFF09001FC68
:1022E300E0C4540F75F002A424D5FFE5F034FE8F4B
:1022F30082F583ECF0A3EDF090FEDD7480F090FEA8
:10230300C07401F022900483E0FCA3E0FDA3E0FE8F
:10231300A3E0FFE41203CEE4FBFA797A78441202D5
:10232300A79004371208DA900487E0FCA3E0FDA32A
:10233300E0FEA3E0FFE41203CEE4FBFA797A7844EB
:102343001202A790043B1208DA90046BE0FCA3E0AE
:10235300FDA3E0FEA3E0FFE41203CEE4FBFA797AE7
:1023630078441202A790043F1208DA900467E0FC55
:10237300A3E0FDA3E0FEA3E0FFE41203CEE4FBFA37
:10238300797A78441202A79004431208DAE4FFFE34
:10239300FDFC900437E0F8A3E0F9A3E0FAA3E0FB27
:1023A300120344606FE4FFFEFDFC900443E0F8A3D6
:1023B300E0F9A3E0FAA3E0FB12034460579004435F
:1023C300E0FCA3E0FDA3E0FEA3E0FF900437E0F808
:1023D300A3E0F9A3E0FAA3E0FB1200ADC004C0053B
:1023E300C006C007900443E0F8A3E0F9A3E0FAA312
:1023F300E0FB900437E0FCA3E0FDA3E0FEA3E0FFD5
:102403001200A9D003D002D001D0001202A790037A
:10241300CB1208DA90039FE0FCA3E0FDA3E0FEA348
:10242300E0FFA31208DA9003CBE0FCA3E0FDA3E0F6
:10243300FEA3E0FF90039F1208DA90045BE0FCA385
:10244300E0FDA3E0FEA3E0FF9004531208DA90033B
:10245300A3E0F8A3E0F9A3E0FAA3E0FB90039FE075
:10246300FCA3E0FDA3E0FEA3E0FF1200A990040F8C
:10247300E0F8A3E0F9A3E0FAA3E0FB12019EC00495
:10248300C005C006C00790039FE0FCA3E0FDA3E0E6
:10249300FEA3E0FF90041BE0F8A3E0F9A3E0FAA396
:1024A300E0FB12019ED003D002D001D0001200AD98
:1024B30090045B1208DA900453E0F8A3E0F9A3E078
:1024C300FAA3E0FB90045BE0FCA3E0FDA3E0FEA322
:1024D300E0FF1200A99003A71208DA900453E0FC6E
:1024E300A3E0FDA3E0FEA3E0FF9003A7E0F8A3E0D1
:1024F300F9A3E0FAA3E0FB1200AD9004BB1208DAE3
:1025030090047BE0FCA3E0FDA3E0FEA3E0FF9004C6
:10251300BBE0F8A3E0F9A3E0FAA3E0FB12034460F5
:1025230016401490047BE0FCA3E0FDA3E0FEA3E0CF
:10253300FF9004BB1208DA90047BE0FCA3E0FDA348
:10254300E0FEA3E0FF1203BD9004BBE0F8A3E0F9B3
:10255300A3E0FAA3E0FB120344501790047BE0FCD2
:10256300A3E0FDA3E0FEA3E0FF1203BD9004BB12B2
:1025730008DA229002991208E6000000007F007E2C
:102583000090059FE024D8FD90059EE034FFFC12E7
:1025930003D37B587A3979B4783D12019E90029D1A
:1025A3001208DA9004BBE0F8A3E0F9A3E0FAA3E091
:1025B300FB900417E0FCA3E0FDA3E0FEA3E0FF1201
:1025C30000A9AB07AA06A905A804900578E0FCA317
:1025D300E0FDA3E0FEA3E0FF1200A990039B120815
:1025E300DA900299E0FCA3E0FDA3E0FEA3E0FF90F4
:1025F300039BE0F8A3E0F9A3E0FAA3E0FB1200AD2C
:102603009002991208DAE4FFFE7D7A7C44900299E5
:10261300E0F8A3E0F9A3E0FAA3E0FB120344600EA1
:10262300400C9002991208E6447A00008024E4FFEB
:10263300FE7D7A7CC4900299E0F8A3E0F9A3E0FA66
:10264300A3E0FB120344500A9002991208E6C47AED
:102653000000E4FFFE7D487C4390029DE0F8A3E088
:10266300F9A3E0FAA3E0FB120344600E400C9002CE
:102673009D1208E6434800008024E4FFFE7D487C69
:10268300C390029DE0F8A3E0F9A3E0FAA3E0FB12F4
:102693000344500A90029D1208E6C34800009002CA
:1026A30099E0FCA3E0FDA3E0FEA3E0FF90041FE09C
:1026B300F8A3E0F9A3E0FAA3E0FB12019EC004C073
:1026C30005C006C00790039BE0FCA3E0FDA3E0FE6A
:1026D300A3E0FF9003D3E0F8A3E0F9A3E0FAA3E0BB
:1026E300FB12019ED003D002D001D0001200ADC076
:1026F30004C005C006C00790029DE0FCA3E0FDA353
:10270300E0FEA3E0FF90042FE0F8A3E0F9A3E0FAD2
:10271300A3E0FB12019ED003D002D001D00012002F
:10272300AD9004771208DAE4FFFE7D7A7C439004CF
:1027330077E0F8A3E0F9A3E0FAA3E0FB1203446017
:102743000C400A9004771208E6437A0000E4FFFE87
:102753007D7A7CC3900477E0F8A3E0F9A3E0FAA3C1
:10276300E0FB120344500A9004771208E6C37A0090
:10277300002290025CE0FBA3E475F0041206D2A9E8
:10278300F0FA1208859002811208DA900281E0FCC7
:10279300A3E0FDA3E0FEA3E0FF7B017A027960E4FE
:1027A30090028DF0A37410F09002861208DA900262
:1027B3008AEBF0A3EAF0A3E9F0E4900297F0A3F028
:1027C30090028DE0700302287A900286E0FCA3E079
:1027D300FDA3E0FEA3E0FF90028F1208DA90028FC0
:1027E300E0FCA3E0FDA3E0FEA3E0FFEC3350109078
:1027F300028FA3A3A3E012083D90028F1208DA9080
:10280300028EE0FBE4FAF9F8A3E0FCA3E0FDA3E009
:10281300FEA3E0FF124C21EB2430FF90028AE0FB81
:10282300A3E0FAA3E0F9EF1205EB90028FE0FCA31B
:10283300E0FDA3E0FEA3E0FFC00790028EE0FBE40F
:10284300FAF9F8D007124C2190028F1208DA90029D
:1028530098E004F090028FE0FCA3E0FDA3E0FEA368
:10286300E0FFEC4D4E4F700302292190028BE4757B
:10287300F0011206BC8088900286E0FCA3E0FDA371
:10288300E0FEA3E0FF9002931208DA90028EE0FBD1
:10289300E4FAF9F8900293E0FCA3E0FDA3E0FEA3C1
:1028A300E0FF1207ABAF03900297EFF0740AD39FD8
:1028B3005006E02437F08007900297E02430F09030
:1028C3000297E0FF90028AE0FBA3E0FAA3E0F9EFAE
:1028D3001205EB900293E0FCA3E0FDA3E0FEA3E06E
:1028E300FFC00790028EE0FBE4FAF9F8D007120765
:1028F300AB9002931208DA900298E004F0900293EE
:10290300E0FCA3E0FDA3E0FEA3E0FFEC4D4E4F602F
:102913000D90028BE475F0011206BC02288E900222
:1029230098E0FF229001FCEFF0A3EDF0A3EBF0A3FE
:10293300E0F8A3E0F9A3E0FAA3E0FB9005B9E0FC1B
:10294300A3E0FDA3E0FEA3E0FF1207ABE47B04FAE0
:10295300F9F81207ABC3E49FFFE49EAD07FC9001B7
:10296300FCE01470030229F3147003022A2E14707E
:1029730003022A7B24036003022ACD900203E0FBB7
:10298300640170144398508D8BECF58D438E40D2C7
:102993008EE4900397F0800FEBB4020B4398508DB5
:1029A300D7ECF5D6438E1553A23F9001FDE0FF709F
:1029B30007A3E0B401028030EFB4020C9001FEE003
:1029C300B4030543A24080209001FDE0B4040AA3B0
:1029D300E0B4050543A280800F9001FDE0B4060832
:1029E300A3E0B4070343A2C0E4900397F0D2AC2260
:1029F300900203E0B4020B439A108DD7ECF5D64353
:102A03008E1453BAFE9001FDE0FFB40807A3E0B4AF
:102A13000902800EEFB40A0A9001FEE0B40B0343EF
:102A2300BA0143AF01E4900398F022900203E0FB64
:102A3300B4020D439A108DD7ECF5D6438E14800F54
:102A4300EBB4030B43AC508DD5ECF5D443D10A530F
:102A5300BAFD9001FDE0FFB40C07A3E0B40D0280C2
:102A63000EEFB40E0A9001FEE0B40F0343BA024323
:102A7300AF08E4900399F022900203E0FBB4020D47
:102A83004384108DD7ECF5D6438E14800FEBB4043A
:102A93000B4384508DD3ECF5D243D1A053BAFB90B2
:102AA30001FDE0FFB41007A3E0B411028014EFB4FA
:102AB30012109001FEE0B41309E4F5CA75C904438A
:102AC300BA0443AF10E490039AF022EF1209542B97
:102AD30054002B5B012B62022B69032B70042B77B1
:102AE300052B7E102B85112B8C122B93132B9A14F1
:102AF3002BA1152BA8202BAF212BB6222BBD232BCB
:102B0300C4242BCB252BD2302BD9312BDF322BE511
:102B1300332BEB342BF1352BF7362BFD372C0340BE
:102B23002C09412C0F422C15432C1B502C21512CCA
:102B330027522C2D532C33602C39612C3F622C45AA
:102B4300632C4B702BF7712C51722C577300002C94
:102B53005E7D017F10022C5B7D017F11022C5B7D6A
:102B6300017F20022C5B7D017F21022C5B7D017F95
:102B730060022C5B7D017F61022C5B7D017F120271
:102B83002C5B7D017F13022C5B7D017F22022C5B7A
:102B93007D017F23022C5B7D017F62022C5B7D0123
:102BA3007F63022C5B7D017F14022C5B7D017F150B
:102BB300022C5B7D017F24022C5B7D017F25022C8F
:102BC3005B7D017F64022C5B7D017F65022C5B7D55
:102BD300017F16022C5B7D017F17807C7D017F26A0
:102BE30080767D017F2780707D017F66806A7D010D
:102BF3007F6780647D017F34805E7D017F338058F1
:102C03007D017F2080527D017F17804C7D01E4FF91
:102C130080467D017F7480407D017F21803A7D0164
:102C23007F5480347D017F01802E7D017F75802854
:102C33007D017F2280227D017F33801C7D017F0205
:102C430080167D017F7680107D017F23800A7D01C0
:102C53007F0380047D017F77121DC322120050126F
:102C630048E09001FD1208E600002710900201746D
:102C730013F0A37488F07F6012206F9001FD120897
:102C8300E6000000649002017405F0A37432F07F43
:102C93003312206F12000A12487A7D01E4FF1249B1
:102CA3008B7D017F0512498B7D017F0112498B7D4D
:102CB300017F0412498B7F03124CA87D027C00E440
:102CC300FF1245981252DC1243C37B017A0179FB50
:102CD300900205E4F0A304F07F497E00124B0590B7
:102CE30001FBE064316003022DA1FFFE1251C59088
:102CF30004171208DA7F047E001251C590042F12C4
:102D030008DA7F087E001251C59003D31208DA7FD8
:102D13000C7E001251C590041F1208DA7F107E004A
:102D23001251C59004131208DA7F147E001251C5A4
:102D330090041B1208DA7F187E001251C590040F0D
:102D43001208DA7F1C7E001251C59004231208DAA0
:102D53007F207E001251C59004031208DA7F247E7F
:102D6300001251C59003D71208DA7F287E00125152
:102D7300C590047B1208DA7F327E001251C590049D
:102D8300331208DA7F367E001251C59004271208E9
:102D9300DA7BFF7A6279B17D06E4FF124620900167
:102DA300FBE0643160251232067BFF7A6279B490CE
:102DB3000201E4F0A304F07F497E00124B4E7BFF37
:102DC3007A6279B67D05E4FF124620120056124C52
:102DD3006520960E12005020960512358880F81251
:102DE300005612446980E79004A3E0FCA3E0FDA32E
:102DF300E0FEA3E0FF90046F1208DA9004B3E0FC56
:102E0300A3E0FDA3E0FEA3E0FF9004A31208DA9081
:102E130004BFE0F8A3E0F9A3E0FAA3E0FB900423E6
:102E2300E0FCA3E0FDA3E0FEA3E0FF1200A99004F1
:102E3300B31208DA9004A3E0F8A3E0F9A3E0FAA33D
:102E4300E0FB9004B3E0FCA3E0FDA3E0FEA3E0FFFE
:102E53001200A9900403E0F8A3E0F9A3E0FAA3E0C9
:102E6300FB12019EC004C005C006C0079004B3E076
:102E7300FCA3E0FDA3E0FEA3E0FF9003D7E0F8A3EB
:102E8300E0F9A3E0FAA3E0FB12019ED003D002D045
:102E930001D0001200ADC004C005C006C007E4FFA6
:102EA300FEFD7C409004A3E0F8A3E0F9A3E0FAA3BD
:102EB300E0FB12019EA804A905AA06AB079004B380
:102EC300E0FCA3E0FDA3E0FEA3E0FF1200A9900451
:102ED3006FE0F8A3E0F9A3E0FAA3E0FB1200AD90E2
:102EE30003C7E0F8A3E0F9A3E0FAA3E0FB12019E15
:102EF300D003D002D001D0001200AD90048F12088D
:102F0300DAE4FFFE7DFA7C4490048FE0F8A3E0F955
:102F1300A3E0FAA3E0FB120344600C400A90048F81
:102F23001208E644FA0000E4FFFE7DFA7CC4900434
:102F33008FE0F8A3E0F9A3E0FAA3E0FB1203445007
:102F43000A90048F1208E6C4FA0000229001FBEEF7
:102F5300F0A3EFF0A3ECF0A3EDF0900204E0FF7414
:102F630006C39F50037406F0900203E0FF740AC384
:102F73009F5003740AF09001FFE0FCA3E0FDA3E07F
:102F8300FEA3E0FFE4FBFAF9F812034490022D607C
:102F930031402F74FFF0A37462F0A374C5F0900165
:102FA300FFE0FCA3E0FDA3E0FEA3E0FF90023012EC
:102FB30008DA7B017A0279061211AB900205EFF071
:102FC300803074FFF0A37462F0A374C5F09001FF26
:102FD300E0FCA3E0FDA3E0FEA3E0FF9002301208B3
:102FE300DA7B017A0279071211AB900205EFF0E068
:102FF30004F0900205E024F9FD900203E0FEC3ED26
:103003009E14900228F0900204E0AE052E04900274
:1030130029F0900228E0D36480F87480984022A3BA
:10302300E0FF3395E0FE74062FF58274023EF583CC
:103033007420F0900229E004F0900228E004F0806C
:10304300D19001FFE0FCA3E0FDA3E0FEA3E0FFE4D9
:10305300FBFAF9F812034490022860174015E0FFC9
:103063003395E0FE74062FF58274023EF583742DCA
:10307300F08013E0FF3395E0FE74062FF5827402AF
:103083003EF5837420F0900229E0FF3395E0FE744F
:10309300062FF58274023EF583E4F09001FBA3E072
:1030A300FFA3A3E0FD7B017A027906024620124AC0
:1030B300259003BBE0FCA3E0FDA3E0FEA3E0FFA398
:1030C3001208DA900592E0FCA3E0FDEC1203D37B37
:1030D300237ADB7979783D12019EA804A905AA0613
:1030E300AB079004BBE0FCA3E0FDA3E0FEA3E0FF7D
:1030F3001200A99003BB1208DA9003C3E0FCA3E01B
:10310300FDA3E0FEA3E0FF9003BBE0F8A3E0F9A377
:10311300E0FAA3E0FB1200AD9003C31208DA9003B8
:10312300C3E0FCA3E0FDA3E0FEA3E0FF90042BE0DB
:10313300F8A3E0F9A3E0FAA3E0FB12019EC004C0E8
:1031430005C006C0079003BBE0FCA3E0FDA3E0FEBF
:10315300A3E0FF900433E0F8A3E0F9A3E0FAA3E0CF
:10316300FB12019ED003D002D001D0001200ADC0EB
:1031730004C005C006C0079003BFE0F8A3E0F9A3AD
:10318300E0FAA3E0FB9003BBE0FCA3E0FDA3E0FEB9
:10319300A3E0FF1200A9900427E0F8A3E0F9A3E05D
:1031A300FAA3E0FB12019ED003D002D001D000129B
:1031B30000AD90049F1208DAE4FFFE7D967C4390F5
:1031C300049FE0F8A3E0F9A3E0FAA3E0FB120344B1
:1031D300600C400A90049F1208E643960000E4FF47
:1031E300FE7D967CC390049FE0F8A3E0F9A3E0FA88
:1031F300A3E0FB120344500A90049F1208E6C3960F
:103203000000227F507E001252BD7B017A047917A1
:10321300900201E4F0A37404F0E4FFFE124B4E7B32
:10322300017A04792F900201E4F0A37404F0FF7E85
:1032330000124B4E7B017A0379D3900201E4F0A391
:103243007404F07F087E00124B4E7B017A04791FD1
:10325300900201E4F0A37404F07F0C7E00124B4E45
:103263007B017A047913900201E4F0A37404F07FE4
:10327300107E00124B4E7B017A04791B900201E40D
:10328300F0A37404F07F147E00124B4E7B017A048A
:10329300790F900201E4F0A37404F07F187E00120A
:1032A3004B4E7B017A047923900201E4F0A374046A
:1032B300F07F1C7E00124B4E7B017A04790390024F
:1032C30001E4F0A37404F07F207E00124B4E7B01D7
:1032D3007A0379D7900201E4F0A37404F07F247E8B
:1032E30000124B4E7B017A04797B900201E4F0A338
:1032F3007404F07F287E00124B4E7B017A047933ED
:10330300900201E4F0A37404F07F327E00124B4E6E
:103313007B017A047927900201E4F0A37404F07F1F
:10332300367E00124B4E7BFF7A62795C900201E499
:10333300F0A304F07F497E00124B4E7BFF7A627943
:103343005E7D07E4FF024620900588E0FCA3E0FDD4
:10335300A3E0FEA3E0FF90057C1208DA900592E05B
:10336300FCA3E0FDEC1203D3900570E0F8A3E0F9B1
:10337300A3E0FAA3E0FB1200A99005881208DA740F
:1033830033FFFEFD7C3F90057CE0F8A3E0F9A3E06A
:10339300FAA3E0FB12019EC004C005C006C0077F6C
:1033A3009A7E997D997C3E900588E0F8A3E0F9A385
:1033B300E0FAA3E0FB12019ED003D002D001D000BB
:1033C3001200AD7B667A667926783F12019E9005DE
:1033D300881208DA900590E0FCA3E0FDEC1203D319
:1033E300900584E0F8A3E0F9A3E0FAA3E0FB120060
:1033F300A97BA27A4579B6783D12019E9005741295
:1034030008DA900457E0FCA3E0FDA3E0FEA3E0FF8D
:103413009005781208DA900578E0F8A3E0F9A3E0C4
:10342300FAA3E0FB900574E0FCA3E0FDA3E0FEA398
:10343300E0FF1200A99005801208DA900457E0F823
:10344300A3E0F9A3E0FAA3E0FBC000C001C002C0FF
:1034530003900580E0FCA3E0FDA3E0FEA3E0FF9062
:103463000588E0F8A3E0F9A3E0FAA3E0FB1200ADBE
:103473007B6F7A127983783B12019ED003D002D0FE
:1034830001D0001200AD9004570208DA900285EFD4
:10349300F07B017A027960E0FFE4FCFDFE90028696
:1034A300EBF0A3EAF0A3E9F0A31208DA90028D127D
:1034B30008E600000000E47B02FAF9F8900289E0D4
:1034C300FCA3E0FDA3E0FEA3E0FF1207AB90028D97
:1034D300E0F8A3E0F9A3E0FAA3E0FBC3120861401C
:1034E30003023587900289A3A3E0FEA3E024FFFB38
:1034F300EE34FFFAA3A3A3E0FEA3E0FFC3EB9FFD1B
:10350300EA9EFC900286E0FBA3E0FAA3E0F98D8239
:103513008C831205BE900291F08F828E831205BEBA
:10352300FFC007900289A3A3E0FEA3E024FFFBEE04
:1035330034FFFAA3A3A3E0FEA3E0FDAC06C3EB9D17
:10354300FFEA9CFE900286E0FBA3E0FA8F828E8363
:10355300D0E01205FD900291E0FFEF8D828C831283
:1035630005FD90028DE0FCA3E0FDA3E0FEA3E024B3
:1035730001FFE43EFEE43DFDE43CFC90028D1208B5
:10358300DA0234B92230930C30C10930A10630C0BD
:10359300030236717FE87E0312528920932890013B
:1035A30001E0FEA3E07803C333CE33CED8F924047D
:1035B300F58274013EF583E0FE3395E0900101F05E
:1035C300A3CEF03093FD20C128900101E0FEA3E0DB
:1035D3007803C333CE33CED8F92405F58274013E84
:1035E300F583E0FE3395E0900101F0A3CEF030C106
:1035F300FD20A128900101E0FEA3E07803C333CEB0
:1036030033CED8F92406F58274013EF583E0FE3308
:1036130095E0900101F0A3CEF030A1FD20C02890E9
:103623000101E0FEA3E07803C333CE33CED8F924FF
:1036330007F58274013EF583E0FE3395E0900101C6
:10364300F0A3CEF030C0FDE4FF12507B900101E007
:10365300FEA3E07803C333CE33CED8F92408F58232
:1036630074013EF583A3E0FAA3E0F912097A22E498
:10367300FF12507B900417E0FCA3E0FDA3E0FEA340
:10368300E0FF9001FF1208DA9002037405F0A3141F
:10369300F0E4FDFCFFFE122F4F30930930C10630DA
:1036A300A10320C0757FE87E0312528920931F90E7
:1036B3000417E0FCA3E0FDA3E0FEA3E0FF7BCD7ACB
:1036C300CC79CC783D1200AD9004171208DA20C1F2
:1036D3001F900417E0FCA3E0FDA3E0FEA3E0FF7B43
:1036E300CD7ACC79CC783D1200A99004171208DA70
:1036F30020C01F900417E0FCA3E0FDA3E0FEA3E0BD
:10370300FF7B0A7AD77923783C1200AD9004171215
:1037130008DA20A10520A12D80FB900417E0FCA36B
:10372300E0FDA3E0FEA3E0FF9001FF1208DA9002A0
:10373300037405F0A314F0E4FDFCFFFE122F4F12F7
:10374300527E02369C123206900101E4F0A3740407
:10375300F0024E2EE4FF12507B90042FE0FCA3E016
:10376300FDA3E0FEA3E0FF9001FF1208DA9002033D
:103773007405F0A314F0E4FDFCFFFE122F4F309309
:103783000930C10630A10320C0757FE87E031252C1
:103793008920931F90042FE0FCA3E0FDA3E0FEA388
:1037A300E0FF7BCD7ACC79CC783D1200AD90042F2D
:1037B3001208DA20C11F90042FE0FCA3E0FDA3E070
:1037C300FEA3E0FF7B0A7AD77923783C1200A99005
:1037D300042F1208DA20C01F90042FE0FCA3E0FDA1
:1037E300A3E0FEA3E0FF7B6F7A127983783A12009D
:1037F300AD90042F1208DA20A10520A12D80FB90A3
:10380300042FE0FCA3E0FDA3E0FEA3E0FF9001FF93
:103813001208DA9002037405F0A314F0E4FDFCFF30
:10382300FE122F4F12527E0237811232069001018F
:10383300E4F0A37404F0024E2EE4FF12507B9003D5
:10384300D3E0FCA3E0FDA3E0FEA3E0FF9001FF12A1
:1038530008DA9002037405F0A314F0E4FDFCFFFE04
:10386300122F4F30930930C10630A10320C0757F5A
:10387300E87E0312528920931F9003D3E0FCA3E058
:10388300FDA3E0FEA3E0FF7BCD7ACC79CC783D129B
:1038930000AD9003D31208DA20C11F9003D3E0FCDC
:1038A300A3E0FDA3E0FEA3E0FF7BCD7ACC79CC7847
:1038B3003D1200A99003D31208DA20C01F9003D34E
:1038C300E0FCA3E0FDA3E0FEA3E0FF7B0A7AD77947
:1038D30023783C1200AD9003D31208DA20A105200F
:1038E300A12D80FB9003D3E0FCA3E0FDA3E0FEA3A6
:1038F300E0FF9001FF1208DA9002037405F0A314AD
:10390300F0E4FDFCFFFE122F4F12527E02386612C6
:103913003206900101E4F0A37404F0024E2EE4FF9A
:1039230012507B90041FE0FCA3E0FDA3E0FEA3E0A4
:10393300FF9001FF1208DA9002037405F0A314F05C
:10394300E4FDFCFFFE122F4F30930930C10630A176
:103953000320C0757FE87E0312528920931F9004D1
:103963001FE0FCA3E0FDA3E0FEA3E0FF7B0A7AD700
:103973007923783C1200AD90041F1208DA20C11F8E
:1039830090041FE0FCA3E0FDA3E0FEA3E0FF7B0A9D
:103993007AD77923783C1200A990041F1208DA2001
:1039A300C01F90041FE0FCA3E0FDA3E0FEA3E0FF23
:1039B3007B6F7A127983783A1200AD90041F120854
:1039C300DA20A10520A12D80FB90041FE0FCA3E0D9
:1039D300FDA3E0FEA3E0FF9001FF1208DA900203CB
:1039E3007405F0A314F0E4FDFCFFFE122F4F1252F6
:1039F3007E02394B123206900101E4F0A37404F005
:103A0300024E2EE4FF12507B90041BE0FCA3E0FD6A
:103A1300A3E0FEA3E0FF9001FF1208DA9002037413
:103A230005F0A314F0E4FDFCFFFE122F4F309309C1
:103A330030C10630A10320C0F47FE87E031252890F
:103A430020931F90041BE0FCA3E0FDA3E0FEA3E092
:103A5300FF7BCD7ACC79CC783D1200AD90041B125C
:103A630008DA20C11F90041BE0FCA3E0FDA3E0FEE5
:103A7300A3E0FF7BCD7ACC79CC783D1200A99004EA
:103A83001B1208DA20C01F90041BE0FCA3E0FDA377
:103A9300E0FEA3E0FF7B0A7AD77923783C1200ADDE
:103AA30090041B1208DA20A10520A12D80FB9004AD
:103AB3001BE0FCA3E0FDA3E0FEA3E0FF9001FF12E7
:103AC30008DA9002037405F0A314F0E4FDFCFFFE92
:103AD300122F4F12527E023A30123206900101E445
:103AE300F0A37408F0024EFAE4FF12507B90040F27
:103AF300E0FCA3E0FDA3E0FEA3E0FF9001FF1208BA
:103B0300DA9002037405F0A314F0E4FDFCFFFE1247
:103B13002F4F30930930C10630A10320C0757FE8D1
:103B23007E0312528920931F90040FE0FCA3E0FD53
:103B3300A3E0FEA3E0FF7BCD7ACC79CC783D1200E5
:103B4300AD90040F1208DA20C11F90040FE0FCA30C
:103B5300E0FDA3E0FEA3E0FF7B0A7AD77923783C5C
:103B63001200A990040F1208DA20C01F90040FE07E
:103B7300FCA3E0FDA3E0FEA3E0FF7B6F7A12798351
:103B8300783A1200AD90040F1208DA20A10520A1A3
:103B93002D80FB90040FE0FCA3E0FDA3E0FEA3E077
:103BA300FF9001FF1208DA9002037405F0A314F0EA
:103BB300E4FDFCFFFE122F4F12527E023B15123220
:103BC30006900101E4F0A37408F0024EFAE4FF1238
:103BD300507B900403E0FCA3E0FDA3E0FEA3E0FF21
:103BE3009001FF1208DA9002037405F0A314F0E4C5
:103BF300FDFCFFFE122F4F30930930C10630A103A5
:103C030020C0757FE87E0312528920931F9004031E
:103C1300E0FCA3E0FDA3E0FEA3E0FF7BCD7ACC793B
:103C2300CC783D1200AD9004031208DA20C11F9036
:103C33000403E0FCA3E0FDA3E0FEA3E0FF7BCD7A59
:103C4300CC79CC783D1200A99004031208DA20C085
:103C53001F900403E0FCA3E0FDA3E0FEA3E0FF7BD1
:103C63000A7AD77923783C1200AD9004031208DA5C
:103C730020A10520A12D80FB900403E0FCA3E0FD1F
:103C8300A3E0FEA3E0FF9001FF1208DA90020374A1
:103C930005F0A314F0E4FDFCFFFE122F4F12527E39
:103CA300023BFA123206900101E4F0A3740BF00216
:103CB30050C8E4FF12507B9003D7E0FCA3E0FDA3C0
:103CC300E0FEA3E0FF9001FF1208DA9002037405FF
:103CD300F0A314F0E4FDFCFFFE122F4F30930930E4
:103CE300C10630A10320C0757FE87E0312528920EC
:103CF300931F9003D7E0FCA3E0FDA3E0FEA3E0FF46
:103D03007BCD7ACC79CC783D1200AD9003D71208E5
:103D1300DA20C11F9003D7E0FCA3E0FDA3E0FEA3DC
:103D2300E0FF7BCD7ACC79CC783D1200A99003D704
:103D33001208DA20C01F9003D7E0FCA3E0FDA3E044
:103D4300FEA3E0FF7B0A7AD77923783C1200AD907B
:103D530003D71208DA20A10520A12D80FB9003D7F9
:103D6300E0FCA3E0FDA3E0FEA3E0FF9001FF120847
:103D7300DA9002037405F0A314F0E4FDFCFFFE12D5
:103D83002F4F12527E023CDF123206900101E4F003
:103D9300A3740BF00250C8E4FF12507B90047BE045
:103DA300FCA3E0FDA3E0FEA3E0FF9001FF1208DA0D
:103DB3009002037405F0A314F0E4FDFCFFFE122F40
:103DC3004F30930930C10630A10320C0757FE87ED0
:103DD3000312528920931F90047BE0FCA3E0FDA310
:103DE300E0FEA3E0FF7BCD7ACC79CC783D1200AD29
:103DF30090047B1208DA20C11F90047BE0FCA3E04F
:103E0300FDA3E0FEA3E0FF7BCD7ACC79CC783D1215
:103E130000A990047B1208DA20C01F90047BE0FC09
:103E2300A3E0FDA3E0FEA3E0FF7B0A7AD779237822
:103E33003C1200AD90047B1208DA20A10520A12DCD
:103E430080FB90047BE0FCA3E0FDA3E0FEA3E0FF86
:103E53009001FF1208DA9002037405F0A314F0E452
:103E6300FDFCFFFE122F4F12527E023DC41232069A
:103E7300900101E4F0A37408F0024EFAE4FF12503B
:103E83007B900433E0FCA3E0FDA3E0FEA3E0FF90FE
:103E930001FF1208DA9002037405F0A314F0E4FDA5
:103EA300FCFFFE122F4F30930930C10630A10320CF
:103EB300C0757FE87E0312528920931F900433E07C
:103EC300FCA3E0FDA3E0FEA3E0FF7BCD7ACC79CC9D
:103ED300783D1200AD9004331208DA20C11F90041C
:103EE30033E0FCA3E0FDA3E0FEA3E0FF7BCD7ACCAF
:103EF30079CC783D1200A99004331208DA20C01F50
:103F0300900433E0FCA3E0FDA3E0FEA3E0FF7B0A03
:103F13007AD77923783C1200AD9004331208DA2063
:103F2300A10520A12D80FB900433E0FCA3E0FDA3B9
:103F3300E0FEA3E0FF9001FF1208DA90020374058C
:103F4300F0A314F0E4FDFCFFFE122F4F12527E0289
:103F53003EA9123206900101E4F0A3741BF0025251
:103F63001EE4FF12507B900427E0FCA3E0FDA3E0D6
:103F7300FEA3E0FF9001FF1208DA9002037405F03C
:103F8300A314F0E4FDFCFFFE122F4F30930930C160
:103F93000630A10320C0757FE87E03125289209367
:103FA3001F900427E0FCA3E0FDA3E0FEA3E0FF7B5A
:103FB300CD7ACC79CC783D1200AD9004271208DA83
:103FC30020C11F900427E0FCA3E0FDA3E0FEA3E0D3
:103FD300FF7BCD7ACC79CC783D1200A990042712CF
:103FE30008DA20C01F900427E0FCA3E0FDA3E0FE55
:103FF300A3E0FF7B0A7AD77923783C1200AD9004C3
:10400300271208DA20A10520A12D80FB900427E0C8
:10401300FCA3E0FDA3E0FEA3E0FF9001FF1208DA9A
:104023009002037405F0A314F0E4FDFCFFFE122FCD
:104033004F12527E023F8E123206900101E4F0A32A
:10404300741CF0025237C0E0C0F0C083C082C0D0FD
:1040530075D000C000C001C002C003C004C005C0C9
:1040630006C007C39005B8E094049005B7E06480E8
:104073009480400AE4F0A3F01209DB122308C390F2
:1040830005B6E094029005B5E0648094804010E4A6
:10409300F0A3F01249D8124A2512334B1225769019
:1040A30005B6E004F070069005B5E004F09005B89D
:1040B300E004F070069005B7E004F0125250122DA0
:1040C300EA7F007E407D9C7C4590048FE0F8A3E06E
:1040D300F9A3E0FAA3E0FB1200AD12040CAD07ACA8
:1040E300067F601242F01230B17F007E407DA67CD5
:1040F3004490049FE0F8A3E0F9A3E0FAA3E0FB12E5
:1041030000AD12040CAD07AC067F331242F0D007AA
:10411300D006D005D004D003D002D001D000D0D037
:10412300D082D083D0F0D0E032E4FF12507B9004F1
:1041330013E0FCA3E0FDA3E0FEA3E0FF9001FF1268
:1041430008DA9002037405F0A314F0E4FDFCFFFE0B
:10415300122F4F30930930C10630A10320C0F47FE2
:10416300E87E0312528920931F900413E0FCA3E01E
:10417300FDA3E0FEA3E0FF7BCD7ACC79CC783D12A2
:1041830000AD9004131208DA20C11F900413E0FC61
:10419300A3E0FDA3E0FEA3E0FF7BCD7ACC79CC784E
:1041A3003D1200A99004131208DA20C01F900413D3
:1041B300E0FCA3E0FDA3E0FEA3E0FF7B0A7AD7794E
:1041C30023783C1200AD9004131208DA20A10520D5
:1041D300A12D80FB900413E0FCA3E0FDA3E0FEA36C
:1041E300E0FF9001FF1208DA9002037405F0A314B4
:1041F300F0E4FDFCFFFE122F4F12527E0241569057
:104203000101E4F0A37408F0024EFAE4FF12507BBC
:10421300900423E0FCA3E0FDA3E0FEA3E0FF9001F4
:10422300FF1208DA9002037405F0A314F0E4FDFC16
:10423300FFFE122F4F30930930C10630A10320C077
:10424300727FE87E0312528920931E900423E0FCC0
:10425300A3E0FDA3E0FEA3E0FFE4FBFA7980783F4F
:104263001200AD9004231208DA20C11E900423E04B
:10427300FCA3E0FDA3E0FEA3E0FFE4FBFA79807872
:104283003F1200A99004231208DA20C01E900423D1
:10429300E0FCA3E0FDA3E0FEA3E0FFE4FBFA79204A
:1042A30078411200AD9004231208DA20A10520A161
:1042B3002D80FB900423E0FCA3E0FDA3E0FEA3E03C
:1042C300FF9001FF1208DA9002037405F0A314F0C3
:1042D300E4FDFCFFFE122F4F12527E0242381232CF
:1042E30006900101E4F0A3740BF00250C890029A07
:1042F300ECF0A3EDF0900299EFF07440D39F505B84
:10430300A3E0FCA3E0FDE41203D37B007A40791C15
:1043130078461202A7C004C005C006C00790FEF28B
:10432300E0FCA3E0FDE41203D3D003D002D001D01C
:104333000012019E12040C90029CEEF0A3EFF09089
:10434300029CE0FCA3E0FD900299E0C4540F25E039
:10435300FFE433FEEF24EDFFEE805990029AE0FC78
:10436300A3E0FDE41203D37B007A40791C78461264
:1043730002A7C004C005C006C00790FED2E0FCA39C
:10438300E0FDE41203D3D003D002D001D000120128
:104393009E12040C90029CEEF0A3EFF090029CE0BE
:1043A300FCA3E0FD900299E0C4540F75F002A4242D
:1043B300D5FFE5F034FE8F82F583ECF0A3EDF02218
:1043C300D2B6D2C8C2C97F327E00120026D2C97FBC
:1043D300AE12502CE4FF12502C7F1012502C7F4051
:1043E30012502C7F8112502C7F7F12502C7FA112F0
:1043F300502C7FC812502C7FA612502C7FA812502D
:104403002C7F3F12502C7FD312502CE4FF12502CE0
:104413007FD512502C7F8012502C7FD912502C7FC5
:10442300F112502C7FDA12502C7F1212502C7FDBAA
:1044330012502C7F4012502C7F2012502C7F0212DE
:10444300502C7F8D12502C7F1412502C7FA41250AD
:104453002C7FA612502C7FAF12502CE4FF12507BFE
:10446300E4FDFF0252A978FC7C017D017BFF7A62A7
:1044730079957E007F1812055D90049FE0FCA3E010
:10448300FDA3E0FEA3E0FF9001FC1208DA9004BF55
:10449300E0FCA3E0FDA3E0FEA3E0FF90020012080E
:1044A300DA900592E0FCA3E0FDEC1203D390020442
:1044B3001208DA900590E0FCA3E0FDEC1203D39020
:1044C30002081208DA900578E0FCA3E0FDA3E0FE01
:1044D300A3E0FF90020C1208DA900574E0FCA3E05D
:1044E300FDA3E0FEA3E0FF9002101208DA7B017A3D
:1044F3000179FC9002181208E600000018E4FF128C
:1045030046A47F0A7E00020026787FE4F6D8FD7574
:104513008107024553022C5FE493A3F8E493A3407D
:1045230003F68001F208DFF48029E493A3F854072B
:10453300240CC8C333C4540F4420C8834004F45626
:10454300800146F6DFE4800B01020408102040805E
:10455300901748E47E019360BCA3FF543F30E50904
:10456300541FFEE493A360010ECF54C025E060A85E
:1045730040B8E493A3FAE493A3F8E493A3C8C582F1
:10458300C8CAC583CAF0A3C8C582C8CAC583CADF5F
:10459300E9DEE780BE9001FCEFF07E037FE81206C0
:1045A300317C007D0C12061FAB07AA06E4F9F890D4
:1045B30005B9E0FCA3E0FDA3E0FEA3E0FF1207AB17
:1045C300C3E49FFFE49EFE9001FCE0FD700A8F8A26
:1045D300EEF58CD28CD2A922EDB4010A8F8BEEF5C5
:1045E3008DD28ED2AB229001FCE0FDB4020C8FD7AA
:1045F300EEF5D6438E1043AF0422EDB4030C8FD5F2
:10460300EEF5D443D10843AF20229001FCE0B4047B
:104613000B8FD3EEF5D243D18043AF402290022AD1
:10462300EFF0A3EDF0A3EBF0A3EAF0A3E9F0E4A32A
:10463300F0FCA3F090022CE0FBA3E0FAA3E0F990D6
:104643000230E0F5827583001205BE605324E090CA
:10465300022FF090022AE0D3947E4006E4F0A3E018
:1046630004F090022AE0FFA3E0FD1252A9E4FC90BB
:10467300022FE075F006A424D2F582E5F03458F554
:1046830083E5822CF582E435831250510CECB40699
:10469300DE90022AE02406F0900230E004F08094D9
:1046A30022900214EFF0A3EBF0A3EAF0A3E9F07871
:1046B3001C7C027D017BFF7A6279AD7E007F021252
:1046C300055D781E7C027D017BFF7A6279AF7E00F7
:1046D3007F0212055D900214E0FF7B017A02791ECE
:1046E300900224E4F0A37402F0124812900215E041
:1046F300FBA3E0FAA3E0F9A3A3A3E0FFA3E09002E6
:1047030024CFF0A3EFF0900214E0FF1248129002BE
:1047130014E0FF7B017A02791C900224E4F0A37475
:1047230002F002481290029FEFF0A3EDF0A3EBF02A
:10473300A3EAF0A3E9F01252CD90029F1250A2A374
:10474300E0FF1250A69002A5E0B401031200461246
:1047530052CD90029FE025E04401FF1250A6900243
:10476300A4E014F060207F01124FF79002A1E0FB58
:10477300A3E0FAA3E0F9EF1205EB9002A2E475F0CF
:10478300011206BC80D8E4FF124FF79002A1E0FBB0
:10479300A3E0FAA3E0F9EF1205EB020046E47B1075
:1047A3007A27F9F89005B9E0FCA3E0FDA3E0FEA3A6
:1047B300E0FF1207AB9005BDEEF0A3EFF07B407A6C
:1047C30042790F78009005B9E0FCA3E0FDA3E0FE79
:1047D300A3E0FF1207ABEF24FEFFEE34FF9005BF0B
:1047E300F0A3EFF07F007E1B7DB77C009005B9E05E
:1047F300F8A3E0F9A3E0FAA3E0FBD3120861500E9B
:104803009005C0E004F070069005BFE004F022902C
:104813000220EFF0A3EBF0A3EAF0A3E9F09002216A
:10482300E0FBA3E0FAA3E0F9A3E0FEA3E0FFE92F96
:10483300F9EA3EFAE924FFF9EA34FFFA900221EBA0
:10484300F0A3EAF0A3E9F090022474FFF5F0120656
:10485300D245F06021900220E0FFA3E0FBA3E0FA41
:10486300A3E0F91205A5FD12494F90022274FFF54A
:10487300F01206BC80D1227F0A7E0012002612515C
:104883003A7B807D6B7F691200667F027E00120097
:1048930026E4FB7D6B7F69124D28EF20E7F37B0154
:1048A3007D6B7F69120066E4FB7D6C7F6912006695
:1048B3007B017D1A7F691200667B077D197F691270
:1048C30000667B187D1B7F691200667B107D1C7F51
:1048D300691200667B037D1D7F6902006643FF103A
:1048E300121AFF9005B91208DA1247A0E4F594F5FD
:1048F30093F592F591F596F595F5B2F5B1F5B4F515
:10490300B3F5CAF5C9F5CCF5CBF5E2F5E1F5DEF57E
:104913008EF598F59AF5ACF584F5A2F5BAF5AFF5F1
:10492300899001FF1208E60001C20090020374029D
:10493300F07B01E4FDFF022927AF06E0FBA3E4754A
:10494300F0011206D2A9F0FA1205A5FDEF146015C5
:1049530014601D1460252403702D900397E070FAF2
:1049630004F08D9922900398E070FA04F08D9B2255
:10497300900399E070FA04F08DAD2290039AE070F1
:10498300FA04F0AF058F852243BC8053BCF0EF429D
:10499300BCEF131313541FFEBE0118EF5407FC742E
:1049A30001A804088002C333D8FCFCF45294EC42FF
:1049B300938019EE7016EF5407FE7401A806088061
:1049C30002C333D8FCFEF45292EE4291ED540F42EF
:1049D300DE43DE20227B017A0279999002A47406D9
:1049E300F0E4A3F07D3B7F69124728900299E0FE33
:1049F300A3E0FDEDFF90058CEEF0A3EFF090029B9A
:104A0300E0FEA3E0FDEDFF90058EEEF0A3EFF09046
:104A1300029DE0FEA3E0FDEDFF900590EEF0A3EF15
:104A2300F0227B017A0279999002A47406F0E4A340
:104A3300F07D437F69124728900299E0FEA3E0FDD1
:104A4300EDFF900592EEF0A3EFF090029BE0FEA342
:104A5300E0FDEDFF900594EEF0A3EFF090029DE0F2
:104A6300FEA3E0FDEDFF900596EEF0A3EFF022C06C
:104A7300E0C083C082C0D075D000C007E59830E1A4
:104A8300085398FD900397E4F0E59830E02053989D
:104A9300FEAF99EFB47F129005B4E0FF04F0EFD3BB
:104AA3009414400A75C76080059005B4E4F0D007FC
:104AB300D0D0D082D083D0E032EF14601714601EC0
:104AC30014602714603024047037C28CE4F58CF52D
:104AD3008AD28C22C28EE4F58DF58BD28E22538E30
:104AE300EFE4F5D6F5D7438E102253D1F7E4F5D48E
:104AF300F5D543D1082253D17FE4F5D2F5D343D181
:104B03008022900202EBF0A3EAF0A3E9F0AD07AC38
:104B13000675C50190020574FFF5F01206D245F043
:104B230060288DC4ECF5C375C65A75C6A5900202FC
:104B3300E0FBA3E475F0011206D2A9F0FAE5C21274
:104B430005EB0DBD00010C0080CA229001FEEBF0C5
:104B5300A3EAF0A3E9F0AD07AC0675C50290020124
:104B630074FFF5F01206D245F060288DC4ECF5C34E
:104B73009001FEE0FBA3E475F0011206D2A9F0FA5E
:104B83001205A5F5C20DBD00010C75C65A75C6A563
:104B93000080CA22EF14601714601E14602514608D
:104BA3002C24047030AF8CEFFCAF8AEFFD8026AF6E
:104BB3008DEFFCAF8BEFFD801CAFD6EFFCAFD7EFD3
:104BC300FD8012AFD4EFFCAFD5EFFD8008AFD2EF7D
:104BD300FCAFD3EFFDAF05AE0422E49002CDF0D2DB
:104BE300C8C2C9C2C8D2C9D2C8C2C9F0C2C8E4FDCA
:104BF3007F04124FC69002CDE025E02401F582E444
:104C03003400F583EEF0A3EFF0D2C89002CDE004B8
:104C1300F0E0C3948040D59000007401F022C2D527
:104C2300E830E70FB2D5E4C39BFBE49AFAE499F9C1
:104C3300E498F8EC30E717B2D5124C571207ABE4FF
:104C4300C39BFBE49AFAE499F9E498F8800312070A
:104C5300AB30D50DE4C39FFFE49EFEE49DFDE49CD1
:104C6300FC22E4FFFE7D027C43900578E0F8A3E09C
:104C7300F9A3E0FAA3E0FB120344501CE4FFFE7D1A
:104C83000C7CC3900578E0F8A3E0F9A3E0FAA3E075
:104C9300FB1203446002500C1200507D887C137F8A
:104CA300601242F022EF146018146020146026147E
:104CB300602C24047030E4F58AF58C438904D28C8B
:104CC30022E4F58BF58D438940D28E22E4F5D7F5A6
:104CD300D6438E1822E4F5D5F5D443D10C22E4F55E
:104CE300D3F5D243D1C022C0E0C0F0C083C082C09C
:104CF300D075D000C000C001C002C003C004C0050D
:104D0300C006C00753EFFB124BDDD007D006D0051A
:104D1300D004D003D002D001D000D0D0D082D08331
:104D2300D0F0D0E0329001FDEDF0AA07A9031252B2
:104D3300CDEA25E0FF1250A6E0FF1250A6E9B40128
:104D4300031200461252CDAF02EF25E04401FF12D9
:104D530050A6E4FF124FF7AD07120046AF05227BC2
:104D6300FF7A6079EAE4FDFF1246207BFF7A6079DF
:104D7300F57D01E4FF1246207BFF7A6079FA7D021C
:104D8300E4FF1246207BFF7A6179007D03E4FF0292
:104D930046207BFF7A617905E4FDFF1246207BFF05
:104DA3007A61790D7D01E4FF1246207BFF7A6079F9
:104DB300FA7D02E4FF1246207BFF7A6179007D03CE
:104DC300E4FF0246207BFF7A617905E4FDFF12468A
:104DD300207BFF7A6079F57D01E4FF1246207BFF9B
:104DE3007A6179187D02E4FF1246207BFF7A6179AC
:104DF300007D03E4FF0246207BFF7A617905E4FD31
:104E0300FF1246207BFF7A6079F57D01E4FF1246AD
:104E1300207BFF7A6079FA7D02E4FF1246207BFF54
:104E23007A6179237D03E4FF0246207BFF7A61796F
:104E33004FE4FDFF1246207BFF7A61795F7D01E439
:104E4300FF1246207BFF7A6179697D02E4FF1246F7
:104E5300207BFF7A6179737D03E4FF0246207BFFA9
:104E63007A61797DE4FDFF1246207BFF7A61798ABE
:104E73007D01E4FF1246207BFF7A6179697D02E4BC
:104E8300FF1246207BFF7A6179737D03E4FF0246BC
:104E9300207BFF7A61797DE4FDFF1246207BFF7A58
:104EA30061795F7D01E4FF1246207BFF7A61799986
:104EB3007D02E4FF1246207BFF7A6179737D03E470
:104EC300FF0246207BFF7A61797DE4FDFF124620D5
:104ED3007BFF7A61795F7D01E4FF1246207BFF7AD5
:104EE3006179697D02E4FF1246207BFF7A6179A92B
:104EF3007D03E4FF0246207BFF7A6179B9E4FDFF7D
:104F03001246207BFF7A6179C97D01E4FF124620B6
:104F13007BFF7A6179D07D02E4FF1246207BFF7A22
:104F23006179D77D03E4FF0246207BFF7A6179E153
:104F3300E4FDFF1246207BFF7A6179E87D01E4FFFF
:104F43001246207BFF7A6179D07D02E4FF1246206E
:104F53007BFF7A6179D77D03E4FF0246207BFF7AEA
:104F63006179E1E4FDFF1246207BFF7A6179C97D17
:104F730001E4FF1246207BFF7A6179F87D02E4FFAA
:104F83001246207BFF7A6179D77D03E4FF02462036
:104F93007BFF7A6179E1E4FDFF1246207BFF7A61B2
:104FA30079C97D01E4FF1246207BFF7A6179D07DC8
:104FB30002E4FF1246207BFF7A6279087D03E4FF57
:104FC300024620A90553BCF0EF42BC43BC40E5BCFC
:104FD30030E5FB53BCDFAFBDEFFEADBEEDFFE4F547
:104FE300BDF5BEAD01EFA805088005CEC313CE13F2
:104FF300D8F9FF22AD07E4FBC2B412529BD2A6E458
:10500300FA12529B125294EB25E0FB30A6010B0AD5
:10501300EAB408EDC2B412529BAF05125204AF03B7
:105023002254F0C4540F4410FF7E08C2B6C287C294
:10503300C8AD061EED6014EF30E704D2858002C2CE
:1050430085D2C8C2C8EF25E0FF80E6D2B622F58339
:10505300E493FF7E08C2B6D287C2C8AD061EED60D8
:1050630014EF30E704D2858002C285D2C8C2C8EFEC
:1050730025E0FF80E6D2B622AC07E4FBEB24B0FFC9
:1050830012502C7F0112502C7F1012502CE4FAAFD7
:10509300041250560AEAB480F60BEBB408DE22E0A1
:1050A30025E0FFAD077B08AF031BEF6015ED30E78D
:1050B30004D2A68002C2A6ED25E0FD125296C2B428
:1050C30080E50252687BFF7A627918E4FDFF12469D
:1050D300207BFF7A6279267D01E4FF1246207BFF65
:1050E3007A62792E7D02E4FF0246207BFF7A6279A1
:1050F30036E4FDFF1246207BFF7A6279407D01E4AE
:10510300FF1246207BFF7A62792E7D02E4FF02467E
:10511300207BFF7A627936E4FDFF1246207BFF7A1B
:105123006279267D01E4FF1246207BFF7A62794E85
:105133007D02E4FF024620E49001FCF09001FCE0D4
:1051430064126017E4FB7D757F69124D289001FCA2
:10515300EFF07F0A7E0012002680E122C0E0C083C8
:10516300C082E59A30E108539AFD900398E4F0E594
:105173009A30E003539AFED082D083D0E032C0E06D
:10518300C083C082E5AC30E10853ACFD900399E4E1
:10519300F0E5AC30E00353ACFED082D083D0E032F4
:1051A300C0E0C083C082E58430E1085384FD9003EE
:1051B3009AE4F0E58430E0035384FED082D083D0B8
:1051C300E0327B017A0179FC900205E4F0A37404D8
:1051D300F0124B059001FCE0FCA3E0FDA3E0FEA36D
:1051E300E0FF227B407A42790F78009005B9E0FC1A
:1051F300A3E0FDA3E0FEA3E0FF1207ABEF04F5F588
:1052030022AD07C2B412529BED6004C2A68002D243
:10521300A6D2B412529BC2B402529B7BFF7A61792D
:105223002CE4FDFF1246207BFF7A6179367D01E491
:10523300FF0246207BFF7A61793DE4FDFF124620A1
:105243007BFF7A6179447D01E4FF0246207F0312EC
:105253004B97AC06AD07E41203D39004BF1208DAF0
:105263007F03024ABC12529430A606C2B4E4FEFF86
:1052730022C2B412529B7E007F012274FFFFFE12F2
:10528300528974FFFFFEEF1FAC0670011E4C70F6CF
:1052930022C2B412529BD2B4E4FFFEEF1FAC0670DD
:1052A300011E4C70F622AC07ED24B0FF12502CEC1B
:1052B300125024EC540FFF02502C75C5038FC4EE1B
:1052C300F5C375C65A75C6A50022D2A6D2B412522A
:1052D3009BC2A612529BC2B42243C7800251E6006E
:1052E30000000000000000000000000000000000BB
:1052F3000000080808080808080000080800000063
:1053030048242412000000000000000000000000F8
:1053130000004848487E2424247E242424000000DE
:1053230000103C5252121C30505052523C1010008C
:105333000000222515150D2A58545452220000004E
:1053430000000C1212120A76252919916E00000032
:10535300060404020000000000000000000000003A
:10536300402010100808080808081010204000000A
:10537300020408081010101010100808040200009E
:1053830000000008086B1C1C6B08080000000000EC
:1053930000000000101010FE1010100000000000AC
:1053A30000000000000000000000000604040200EA
:1053B300000000000000007E00000000000000006C
:1053C30000000000000000000000000606000000CE
:1053D30000402020201010080808040402020000E6
:1053E3000000182442424242424242241800000074
:1053F3000000101C10101010101010107C00000082
:1054030000003C4242424020100804427E0000005B
:1054130000003C4242402018204042423C00000031
:10542300000020303028242422FE2020F800000031
:1054330000007E0202021E22404042221C000000A5
:105443000000182402023A46424242443800000057
:1054530000007E4220201010080808080800000001
:1054630000003C4242422418244242423C000000D5
:1054730000001C22424242625C40402418000000AB
:1054830000000000001818000000001818000000B9
:1054930000000000000008000000000008080800E9
:1054A30000004020100804020408102040000000FF
:1054B30000000000007E00007E00000000000000ED
:1054C300000002040810204020100804020000001D
:1054D30000003C4242462010101000181800000043
:1054E30000001C225A55555555553A423C000000C0
:1054F30000000808181414243C224242E70000006C
:1055030000001F2222221E22424242221F000000CC
:1055130000007C4242010101010142221C00000003
:1055230000001F2242424242424242221F00000028
:1055330000003F4212121E12120242423F000000BC
:1055430000003F4212121E12120202020700000064
:1055530000003C2222010101712122221C000000D3
:105563000000E7424242427E42424242E7000000DC
:1055730000003E0808080808080808083E00000064
:1055830000007C10101010101010101010110F00DC
:1055930000007722120A0E0A12122222770000005C
:1055A3000000070202020202020202427F00000020
:1055B30000007736363636362A2A2A2A6B00000050
:1055C3000000E346464A4A525252626247000000D4
:1055D30000001C2241414141414141221C00000085
:1055E30000003F424242423E020202020700000024
:1055F30000001C224141414141414D321C600000E9
:1056030000003F4242423E1212222242C7000000E3
:1056130000007C4242020418204042423E00000047
:1056230000007F4908080808080808081C00000053
:105633000000E74242424242424242423C000000F2
:105643000000E74242222424141418080800000032
:1056530000006B2A2A2A2A2A361414141400000084
:105663000000E7422424181818242442E70000000D
:105673000000772222141408080808081C00000000
:1056830000007E2120101008040442423F00000065
:1056930078080808080808080808080808780000B7
:1056A30000020404040808081010202020404000D1
:1056B3001E1010101010101010101010101E0000EB
:1056C300182400000000000000000000000000009B
:1056D300000000000000007E000000000000000049
:1056E30006080000000000000000000000000000A9
:1056F3000000000000001C22302C22326C0000004D
:105703000000000302021A26424242261A00000049
:105713000000000000003844020202443800000088
:105723000000006040407C4242424262DC000000D4
:105733000000000000003C42427E02423C000000A8
:105743000000003048083E08080808083E00000032
:105753000000000000007C22221C023C42423C006C
:105763000000000302023A4642424242E7000000C0
:1057730000000C0C00000E08080808083E0000009A
:1057830000003030000038202020202020221E007E
:1057930000000003020272120A0E122277000000B8
:1057A3000000080E08080808080808083E00000062
:1057B3000000000000007F9292929292B7000000D6
:1057C3000000000000003B4642424242E700000066
:1057D3000000000000003C42424242423C00000004
:1057E3000000000000001B26424242261A02070066
:1057F3000000000000005864424242645840E00048
:10580300000000000000774C040404041F000000A3
:105813000000000000007C42023C40423E000000C9
:105823000000000008083E0808080848300000008F
:10583300000000000000634242424262DC000000BC
:105843000000000000007722221414080800000062
:10585300000000000000DB91525A2A2424000000BB
:105863000000000000006E241818182476000000C1
:10587300000000000000E74224241818080806006E
:105883000000000000007E22100808447E00000093
:10589300C0202020202020102020202020C0001005
:1058A3001010101010101010101010101010100005
:1058B30003040404040404080404040404030004A7
:1058C3005A2000000000000000000000000000005B
:1058D30000000000000000002F0000000007000788
:1058E3000000147F147F1400242A7F2A12006264AC
:1058F3000813230036495522500000050300000019
:10590300001C224100000041221C000014083E0834
:10591300140008083E0808000000A0600000080802
:10592300080808000060600000002010080402005E
:105933003E5149453E0000427F40000042615149CB
:1059430046002141454B31001814127F10002745B2
:10595300454539003C4A49493000017109050300B6
:10596300364949493600064949291E0000363600A2
:1059730000000056360000000814224100001414F1
:1059830014141400004122140800020151090600F6
:10599300324959513E007C1211127C007F4949491A
:1059A30036003E41414122007F4141221C007F4994
:1059B300494941007F09090901003E4149497A00EB
:1059C3007F0808087F0000417F4100002040413FDD
:1059D30001007F08142241007F40404040007F02C5
:1059E3000C027F007F0408107F003E4141413E00CE
:1059F3007F09090906003E4151215E007F091929EB
:105A0300460046494949310001017F0101003F40F9
:105A130040403F001F2040201F003F4038403F00D0
:105A230063140814630007087008070061514945AF
:105A33004300007F41410000552A552A550000418B
:105A4300417F000004020102040040404040400046
:105A53000001020400002054545478007F48444459
:105A63003800384444442000384444487F003854C4
:105A730054541800087E0901020018A4A4A47C0051
:105A83007F080404780000447D4000004080847D4A
:105A930000007F102844000000417F4000007C0488
:105AA300180478007C08040478003844444438001F
:105AB300FC242424180018242418FC007C08040463
:105AC3000800485454542000043F444020003C4004
:105AD30040207C001C2040201C003C4030403C0007
